:040000004DEF03F0CD
:1000080000C016F001C015F0E1CF17F0E2CF18F0EC
:100018009EAAB8D0C0D900C01AF01F52D8B497D041
:1000280073D0196A1A50430A02E1010E1C6E1A5065
:10003800410A02E10B0E1C6E1A50450A02E11F0E1E
:100048001C6E84D01A504D0A03E1020E1C6E07D0B4
:100058001A504F0A03E1160E1C6E01D01C6A76D0A6
:100068001A50440A05E1010E196E280E1C6E01D0C3
:100078001C6A6CD01A504F0A03E10C0E1C6E01D09A
:100088001C6A64D01A504B0A05E1020E196E280E3C
:100098001C6E01D01C6A5AD01A504E0A03E1170E82
:1000A8001C6E01D01C6A52D01A504E0A06E1030E8B
:1000B800196E010E1D6E030E1E6E1C6A47D01A5073
:1000C8004E0A03E1200E1C6E01D01C6A3FD01A5064
:1000D800440A05E1040E196E280E1C6E01D01C6A34
:1000E80035D01A500D0A03E1290E1C6E01D01C6A86
:1000F8002DD01A500A0A04E1010E1D6E19C01EF017
:100108001C6A24D01C6A22D01C50000A8AE01C50A9
:10011800010A98E01C50020AA3E01C500B0AAAE04E
:100128001C500C0AAFE01C50160AB6E01C50170A07
:10013800BBE01C501F0AC3E01C50200AC8E01C503A
:10014800280ACFE01C50290AD4E0DCD71BD01A506B
:100158000D0A0CE1310EE16E000EE26E3050E12620
:10016800D8B0E22AE66A010E1B6E0BD0310EE16EA2
:10017800000EE26E3050E126D8B0E22A1AC0E6FF3F
:10018800302A9E9A16C000F015C001F017C0E1FF92
:0601980018C0E2FF110097
:0A019E00850E0D6E0D2EFED7120027
:1001A8003A0E0C6E230E0D6E0D2EFED70C2EFCD7BC
:0201B800120033
:0C01BA00020E0D6E0D2EFED7000012008C
:1001C6000001F3BF02D08A9601D08A86F3BD02D021
:1001D6008A9401D08A84F3BB02D08A9201D08A82A3
:1001E600F3B902D08A9001D08A8041B002D08A88C1
:1001F60001D08A988A8ADEDF8A9AF3B702D08A9675
:1002060001D08A86F3B502D08A9401D08A84F3B3EA
:1002160002D08A9201D08A82F3B102D08A9001D0AC
:100226008A8041B002D08A8801D08A988A8AC2DF41
:0E0236008A9A41A002D0B5DF01D0AEDF1200DF
:0E024400ACB202D00000FCD7F3C0ADFF120038
:100252001D5204E01D6A1EC000F001D0006A1200A7
:100262000900F5CFE6FF0006FBE10106F9E1120005
:100272000001F26BEFC0E9FFF0C0EAFFEECFF1F050
:10028200F151000A0EE0F1C0F3F0DBDF0001F22BC6
:10029200F251EF25E96E000EF021EA6EEECFF1F099
:0402A200EFD7120080
:0C02A6004190EFC0F3F08CDF41801200AB
:1002B200440E2C6E020E2D6EF30E2E6E000E2F6E5D
:1002C2009E0E206E030E216E000E226E000E236E15
:1002D200FF0E246EFF0E256E000E266E000E276E98
:1002E200FF0E286EFF0E296E000E2A6E000E2B6E78
:1002F200AC8A900EAB6E948E949C9EAA03D0AECF25
:0603020000F0FBD7120021
:10030800939A939893909392939493968A9A8A98AF
:100318008A968A948A928A9043DF42DF41DF8A82F2
:100328008A808A8A46DF8A9A3BDF8A8A42DF8A9AEB
:1003380037DF8A8A3EDF8A9A33DF8A908A8A39DFF2
:100348008A9A2EDF8A8A35DF8A9A8A928A868A8AE8
:1003580030DF8A9A25DF8A968A808A8A2ADF8A9AF3
:100368008A908A8A26DF8A9A1BDF8A8A22DF8A9AFB
:100378008A808A8A1EDF8A9A13DF8A908A8A19DF1E
:100388008A9A8A868A848A828A808A8A12DF8A9AE4
:0603980007DF41801200A6
:10039E00AECF01F0ABA202D0AB98AB8801C000F09B
:0203AE0012003B
:1003B000B9C002F0BAC003F0BCC000F0BDC001F08B
:1003C000010E0001BC5F000EBD5B0050011009E092
:1003D00002C0E1FF03C0E2FFBBC0E6FF024A032AFE
:0C03E000EBD7B9C000F0BAC001F0120069
:1003EC00240E0001B96F240EBA6F240EBB6FBC6BC8
:1003FC00B90EEF6F000EF06F36DF150E0B6E4B0E55
:10040C000C6EBE0E0D6E0D2EFED70C2EFCD70B2EC9
:10041C00FAD7000018DF000E000A02E1010E0018E6
:10042C00DFE1030EF66E0A0EF76E000EF86EBD0ECF
:10043C00E16E000EE26E130E006E010E016E0BDF0C
:10044C00BD0E0001EF6F000EF06F0DDF0D0EF36FA0
:10045C00F3DE150E0B6E4B0E0C6EBE0E0D6E0D2ECE
:10046C00FED70C2EFCD70B2EFAD70000ECDE000EBC
:10047C00000A02E1020E0018D4E1530E0001D06F05
:10048C004F0ED16F2C0ED26F530ED36F6C0ED46FE8
:10049C00610ED56F760ED66F650ED76FD86BD00EFA
:1004AC00EF6F000EF06FDFDE0D0EF36FC5DE150E75
:1004BC000B6E4B0E0C6EBE0E0D6E0D2EFED70C2E53
:1004CC00FCD70B2EFAD70000BEDE000E000A02E1AC
:1004DC00020E0018D2E1530E0001D96F4D0EDA6FE7
:1004EC002C0EDB6F300EDC6FDD6BD90EEF6F000E58
:1004FC00F06FB9DE0D0EF36F9FDE150E0B6E4B0E0B
:10050C000C6EBE0E0D6E0D2EFED70C2EFCD70B2EC8
:10051C00FAD7000098DE000E000A02E1020E001865
:10052C00DAE1530E0001DE6F410EDF6F2C0EE06F2F
:10053C00310EE16FE26BDE0EEF6F000EF06F93DEAB
:10054C000D0EF36F79DE150E0B6E4B0E0C6EBE0E90
:10055C000D6E0D2EFED70C2EFCD70B2EFAD70000ED
:10056C0072DE000E000A02E1020E0018DAE1530EF0
:10057C000001E36F500EE46F2C0EE56F310EE66F49
:10058C00320EE76F330EE86F340EE96FEA6BE30E51
:10059C00EF6F000EF06F67DE0D0EF36F4DDE150E74
:1005AC000B6E4B0E0C6EBE0E0D6E0D2EFED70C2E62
:1005BC00FCD70B2EFAD7000046DE000E000A02E133
:1005CC00020E0018D4E12D0E0001EB6F2D0EEC6F16
:1005DC002D0EED6FEE6BEB0EEF6F000EF06F43DE3A
:1005EC000D0EF36F29DE150E0B6E4B0E0C6EBE0E40
:1005FC000D6E0D2EFED70C2EFCD70B2EFAD700004D
:10060C0022DE000E000A02E1040E0018DCE11200EA
:10061C0010D0800E0001B96F1AD0C00EB96F17D070
:10062C00940EB96F14D0D40EB96F11D0800EB96F6F
:10063C000ED00001B951010AECE0B951020AEDE00B
:10064C00B951030AEDE0B951040AEDE0EFD7BA0550
:10065C00006EB951002600C0B9F000C0F3F0ADDD5A
:10066C004190BD6BBD51BB25E96E000EBC21EA6EFD
:10067C00EE520BE0BD51BB25E96E000EBC21EA6EBB
:0E068C00EECFEFF00ADEBD2BEDD7418012005D
:10069A00196A0F013A6B010E1F6E1C6A1D6A1E6AE7
:1006AA00196A1A6A010E1F6E1B6A9D8AF28CF28EF3
:1006BA0026DEB886B06A440EAF6EAC84F5DD010E54
:1006CA000001F36F7BDD0C0EF36F78DD010EB96F5D
:1006DA00010EBA6F880EF66E090EF76E000EF86EEE
:1006EA00420EE16E000EE26E110E006E010E016EF8
:1006FA00B3DD420EBB6F000EBC6F8BDF020EB96F0B
:10070A00030EBA6F440E536E650E546E6D0E556E1F
:10071A006F0E566E200E576E650E586E780E596E15
:10072A00610E5A6E6D0E5B6E700E5C6E6C0E5D6EB7
:10073A00650E5E6E5F6A530EBB6F000EBC6F69DF9B
:10074A003D0E0B6EE10E0C6E3F0E0D6E0D2EFED79A
:10075A000C2EFCD70B2EFAD700000000010EF36F07
:10076A002DDD010EB96F010EBA6F430E606F6F0E69
:10077A00616F6E0E626F6E0E636F650E646F630E4D
:10078A00656F740E666F690E676F6E0E686F670E1F
:10079A00696F210E6A6F6B6B600EBB6F000EBC6FC8
:1007AA0038DF020EB96F010EBA6FB20EF66E090E7D
:1007BA00F76E000EF86E6C0EE16E000EE26E100E11
:1007CA00006E010E016E48DD6C0EBB6F000EBC6F31
:1007DA0020DF3D0E0B6EE10E0C6E3F0E0D6E0D2EE0
:1007EA00FED70C2EFCD70B2EFAD700000000F9DD3D
:1007FA002BDD000E000A02E1030E001801E0F8D713
:10080A00010E0001F36FDADC1F6AF29E1B6A010E09
:10081A00F36FD4DC010EB96F010EBA6F430E7C6F11
:10082A006F0E7D6F6E0E7E6F6E0E7F6F650E806F20
:10083A00630E816F740E826F650E836F640E846F10
:10084A00210E856F866B7C0EBB6F000EBC6FE1DEDE
:10085A00290E0B6E960E0C6E7F0E0D6E0D2EFED7A8
:10086A000C2EFCD70B2EFAD7CD0EF66E090EF76EAC
:10087A00000EF86E870EE16E000EE26E1B0E006E21
:10088A00010E016EE9DC870EEF6F000EF06FECDCF3
:10089A000D0EF36FD2DC010E0001F36F8FDC010E37
:1008AA00B96F010EBA6F520EA26F650EA36F630E77
:1008BA00A46F650EA56F690EA66F760EA76F690EF7
:1008CA00A86F6E0EA96F670EAA6F2E0EAB6F2E0E53
:1008DA00AC6F2E0EAD6FAE6BA20EBB6F000EBC6F6F
:1008EA0098DE306A310EB96F000EBA6FBB6B100E0C
:1008FA00BC6F000EBD6F57DDF28E1B5201E1FDD7B2
:10090A00F29E1B6A010EF36F59DC010EB96F010EDC
:10091A00BA6F520EAF6F650EB06F630EB16F650E90
:10092A00B26F690EB36F760EB46F650EB56F640E53
:10093A00B66F3A0EB76FB86BAF0EBB6F000EBC6FD7
:10094A0068DEC00EF36F3ADC306A310EE96E000ED3
:10095A00EA6E3050E926D8B0EA2AEE50000A0DE0D5
:10096A00310EE96E000EEA6E3050E926D8B0EA2A56
:0E097A00EECFEFF093DC302AE8D7B3D7FFD7EB
:10098800426C7565546F6F74682D436C69636B2195
:01099800005E
:0D09990044656D6F206578616D706C6500C0
:0C09A600436F6E6E656374696E6721001C
:1009B200506C656173652C20776169742E2E2E0050
:0B09C200436F6E6E6563746564210076
:1009CD00426C7565746F6F746820436C69636B203E
:0B09DD00436F6E6E656374656421005B
:0D09E800526563656976696E672E2E2E00DC
:0A09F50052656365697665643A0097
:0409FF002424240088
:100A0300534E2C426C7565546F6F74682D436C693B
:030A1300636B0012
:090A1600534F2C536C617665000E
:050A1F00534D2C3000D6
:050A240053412C3100DC
:080A290053502C31323334002C
:040A31002D2D2D003A
:020000040030CA
:0D000100331F3CFFBD81FF0FC00FE00F401B
:00000001FF
