:04000000BEEF05F05A
:1000080000C016F001C015F0E1CF17F0E2CF18F0EC
:100018009EAAC8D0BFEC04F000C01CF11D0EE16E12
:10002800010EE26E0001A851E126D8B0E22A00C014
:10003800E6FFA82B01010853D8B497D073D01F6AE4
:100048001C51430A02E1010E1A6F1C51410A02E1D8
:100058000B0E1A6F1C51450A02E11F0E1A6F84D04D
:100068001C514D0A03E1020E1A6F07D01C514F0AAA
:1000780003E1160E1A6F01D01A6B76D01C51440A90
:1000880005E1010E1F6E280E1A6F01D01A6B6CD095
:100098001C514F0A03E10C0E1A6F01D01A6B64D081
:1000A8001C514B0A05E1020E1F6E280E1A6F01D073
:1000B8001A6B5AD01C514E0A03E1170E1A6F01D061
:1000C8001A6B52D01C514E0A06E1030E1F6E010E28
:1000D8001B6F030E196F1A6B47D01C514E0A03E1B0
:1000E800200E1A6F01D01A6B3FD01C51440A05E14B
:1000F800040E1F6E280E1A6F01D01A6B35D01C51D2
:100108000D0A03E1290E1A6F01D01A6B2DD01C516C
:100118000A0A04E1010E1B6F1FC019F11A6B24D0E3
:100128001A6B22D01A51000A8AE01A51010A98E083
:100138001A51020AA3E01A510B0AAAE01A510C0A32
:10014800AFE01A51160AB6E01A51170ABBE01A5165
:100158001F0AC3E01A51200AC8E01A51280ACFE042
:100168001A51290AD4E0DCD71DD01C510D0A0DE123
:10017800F60EE16E010EE26E02010751E126D8B0DB
:10018800E22AE66A010E066F0CD00201F60EE16E55
:10019800010EE26E0751E126D8B0E22A1CC1E6FF43
:1001A800072B9E9A16C000F015C001F017C0E1FF9A
:0601B80018C0E2FF110077
:1001BE00C7B409D01F0EC514016E0150000A03E129
:0A01CE00010E006E01D0006A12005D
:0401D800C5841200C8
:1001DC009E96C5869EB601D0FDD7C9CF01F002010F
:1001EC002A51000A02E1C58A01D0C59A9E96C5889B
:0C01FC009EB601D0FDD701C000F012003B
:1002080002012A6B2B6B2B51120802E12A518E082E
:1002180008E3D1DF005201E004D002012A4B2B2B66
:10022800F2D70201120E2B5D02E18F0E2A5D03E365
:100238007B0E006E05D0C580C5A001D0FDD7006A31
:020248001200A2
:10024A009E962AC2C9FFC7A401D0FDD79EB601D087
:10025A00FDD7C5BC02D0006A03D0C584020E006E69
:02026A00120080
:10026C00086A096A100E0C6E0134083609360450FF
:10027C00085E0550D8A0053C095ED8B007D00450E4
:10028C0008260550D8B0053C0926D8900036013612
:06029C000C2EEAD712004F
:1002A200B2DF3A0E02012A6FCFDF23C22AF2CCDF7D
:0A02B20024C22AF2C9DF8FDF120018
:0E02BC00ACB202D00000FCD723C2ADFF12008E
:1002CA000201246B9CDF3A0E02012A6FB9DF23C2B6
:1002DA002AF2B6DF94DF3B0E02012A6FB1DF020178
:1002EA002A6B77DF00C024F272DF24C200F012000A
:1002FA000201276B050E275D0AE227512525E16ECB
:10030A00000E2621E26E200EE66E272BF3D7275128
:10031A002525E16E000E2621E26EE66A270727519F
:10032A002525286F000E2621296F0A0E046E000E5D
:10033A00056E23C200F024C201F093DF08C000F06A
:10034A0009C001F0300E002628C2E1FF29C2E2FFEF
:10035A0000C0E6FF0A0E046E000E056E23C200F00E
:10036A0024C201F07EDF00C023F201C024F2000E95
:10037A00011802E1000E001801E102D02707CFD7C9
:02038A0012005F
:10038C00730E0C6E470E0D6E0D2EFED70C2EFCD779
:06039C0000000000120049
:0A03A200050E0D6E0D2EFED71200A1
:1003AC00020E0C6E080E0D6E0D2EFED70C2EFCD709
:0403BC00000012002B
:1003C000350E0201236F81DF00C019F2000E020119
:1003D0001A6F340E236F79DF19C203F0026A02C06C
:1003E00019F203C01AF2000E016E025000120350FF
:0C03F000011200C019F201C01AF2120044
:1003FC00020119BF02D08A9601D08A8619BD02D09B
:10040C008A9401D08A8419BB02D08A9201D08A8244
:10041C0019B902D08A9001D08A800101E5B102D0CD
:10042C008A8801D08A988A8AB6DF8A9A020119B71B
:10043C0002D08A9601D08A8619B502D08A9401D04E
:10044C008A8419B302D08A9201D08A8219B102D05F
:10045C008A9001D08A800101E5B102D08A8801D04E
:10046C008A988A8A98DF8A9AE5A102D089DF01D01E
:04047C0097DF1200F4
:100480002D0E0201236F246B0CDF0201236B1DDF95
:100490000050E50A03E0020E006E19D0310E020191
:1004A000236F080E246FFDDE2C0E0201236F0A0E4F
:1004B000246FF7DE380E0201236F800E246FF1DE09
:1004C0002D0E0201236F080E246FEBDE006A12006E
:1004D000330E0201236FF9DE00C019F2000E020193
:1004E0001A6F320E236FF1DE19C203F0026A02C0E6
:1004F00019F203C01AF2000E016E025000120350EE
:0C050000011200C019F201C01AF2120032
:10050C0002011F6B206B19C221F21AC222F2800E5B
:10051C001A19006E800E005C02E1000E195D0BE2F0
:10052C00010E1F6F000E206F19510008216F1AC2A7
:10053C0022F2000E225721C223F222C224F21BC245
:10054C0025F21CC226F2D3DE060E1D6F000E1E6FA6
:10055C00000E006E1E51005C02E11D51000819E2F4
:10056C001D511B25E16E1E511C21E26E010E1D5DFD
:10057C00006E000E1E59016E00501B25E96E0150D5
:10058C001C21EA6EEECFE6FF010E1D5F000E1E5B16
:10059C00DFD71BC2E1FF1CC2E2FF200EE66E1F512B
:1005AC0020111AE01D6B1E6B1D511B25E96E1E518F
:1005BC001C21EA6EEE50200A03E11D4B1E2BF4D7D2
:1005CC00010E1D5F000E1E5B1D511B25E16E1E51A1
:0A05DC001C21E26E2D0EE66E1200E7
:1005E60002011C6B19C2E9FF1AC2EAFFEECF1BF229
:1005F6001B51000A0EE01BC223F25DDE02011C2B1A
:100606001C511925E96E000E1A21EA6EEECF1BF277
:04061600EFD7120008
:10061A00370E0201236F54DE00C019F2000E0201E8
:10062A001A6F360E236F4CDE19C203F0026A02C03B
:10063A0019F203C01AF2000E016E025000120350A2
:0C064A00011200C019F201C01AF21200E7
:100656000B0E0C6E570E0D6E0D2EFED70C2EFCD704
:060666000000000012007C
:0E066C000101E59111C219F2C3DEE581120011
:10067A00190E0201196F000E1A6FB0DF02C119F2CA
:10068A0003C11AF2090E1B6F010E1C6F3ADF090E25
:10069A00196F010E1A6FA2DF090E236F0ADE090E07
:1006AA000B6E1E0E0C6EE40E0D6E0D2EFED70C2E6A
:0A06BA00FCD70B2EFAD70000120047
:1006C400949894968B988B9694889486C79EC79C8E
:0606D400380EC66E120094
:1006DA000201176B186B156B166B136B146B116B8E
:1006EA00126B800E1219006E800E005C02E1100E71
:1006FA00115D15E2E8DE00500201132701501423B0
:10070A005ADE0050020115270150162381DF0050DE
:10071A000201172701501823114B122BE2D7040E9E
:10072A00006E13C202F114C203F1005008E0010185
:10073A0003330233039F03BD038FFF0FF7D7040E62
:10074A00006E15C204F116C205F1005008E001015D
:10075A0005330433059F05BD058FFF0FF7D7040E38
:10076A00006E17C206F118C207F1005008E0010135
:10077A0007330633079F07BD078FFF0FF7D712000E
:10078A00200E0201196F000E1A6F28DF06C119F236
:10079A0007C11AF2090E1B6F010E1C6FB2DE090E99
:1007AA00196F010E1A6F1ADF0D0E236F82DD0A0E02
:1007BA000201236F7EDD090E0B6E1E0E0C6EE40E17
:1007CA000D6E0D2EFED70C2EFCD70B2EFAD700007D
:0207DA0012000B
:1007DC001C0E0201196F000E1A6FFFDE04C119F214
:1007EC0005C11AF2090E1B6F010E1C6F89DE090E72
:1007FC00196F010E1A6FF1DE090E236F59DD090E08
:10080C000B6E1E0E0C6EE40E0D6E0D2EFED70C2E06
:0A081C00FCD70B2EFAD700001200E3
:100826002CDE0050000A14E1310E0201196F000E91
:100836001A6FD6DEA30E0B6E570E0C6E020E0D6EE1
:100846000D2EFED70C2EFCD70B2EFAD7000013D098
:1008560002014D0E196F000E1A6FC2DEA30E0B6E4B
:10086600570E0C6E020E0D6E0D2EFED70C2EFCD7FB
:080876000B2EFAD7000012005E
:10087E000900F5CFE6FF0006FBE10106F9E11200E3
:10088E00BC0E0101EE6F020EEF6F230EF06F020E23
:10089E00F16F7E0EF26F090EF36F000EF46F000E05
:1008AE00F56FFF0EE66FFF0EE76F000EE86F000E9E
:1008BE00E96FFF0EEA6FFF0EEB6F000EEC6F000E8E
:1008CE00ED6FAC8A900EAB6E948E949C9EAA03D064
:0808DE00AECF00F0FBD71200C1
:1008E600939A939893909392939493968A9A8A98CC
:1008F6008A968A948A928A9046DD45DD44DD8A820C
:100906008A808A8A4BDD8A9A3EDD8A8A47DD8A9A00
:100916003ADD8A8A43DD8A9A36DD8A908A8A3EDD06
:100926008A9A31DD8A8A3ADD8A9A8A928A868A8A00
:1009360035DD8A9A28DD8A968A808A8A2FDD8A9A08
:100946008A908A8A2BDD8A9A1EDD8A8A27DD8A9A10
:100956008A808A8A23DD8A9A16DD8A908A8A1EDD33
:100966008A9A8A868A848A828A808A8A17DD8A9AFD
:080976000ADD0101E581120018
:10097E00AECF01F0ABA202D0AB98AB8801C000F0B5
:02098E00120055
:1009900010D0800E02010A6F1AD0C00E0A6F17D055
:1009A000940E0A6F14D0D40E0A6F11D0800E0A6F05
:1009B0000ED002010A51010AECE00A51020AEDE0F0
:1009C0000A51030AEDE00A51040AEDE0EFD70B05E6
:1009D000006E0A51002600C00AF200C019F20EDDB6
:1009E000E59102010E6B0E510C25E96E000E0D21F2
:1009F000EA6EEE520CE00E510C25E96E000E0D2150
:100A0000EA6EEECF11F232DE02010E2BECD70101BD
:040A1000E58112006A
:100A14000AC202F00BC203F00DC200F00EC201F0D4
:100A2400010E02010D5F000E0E5B0050011009E083
:100A340002C0E1FF03C0E2FF0CC2E6FF024A032A40
:0C0A4400EBD70AC200F00BC201F0120058
:100A50000F01546B2F6B2A0E0201196F000E1A6FD3
:100A6000C2DD96908D80230E196F000E1A6FBBDDCC
:100A70006A0E196F000E1A6FB6DDA30E0B6E570EBD
:100A80000C6E020E0D6E0D2EFED70C2EFCD70B2E0B
:100A9000FAD70000A00EC86E15DEC5DE0D0E0B6E77
:100AA0002D0E0C6ED70E0D6E0D2EFED70C2EFCD714
:100AB0000B2EFAD700000000830E196F000E1A6F7C
:100AC00092DDA30E0B6E570E0C6E020E0D6E0D2EE8
:0E0AD000FED70C2EFCD70B2EFAD7000012001A
:100ADE000201106B0CC201F0010E006E015004E019
:100AEE0000360090FF0FFBD700C00FF20AC2E9FFDD
:100AFE000BC2EAFF0050EE14016E0152010ED8A493
:100B0E00000E006E0E51001A18E00D51000804E29E
:100B1E009BDD9ADD0D07F9D70AC2E9FF0BC2EAFF8A
:100B2E000F51EE14016E0152010ED8A4000E006E8C
:100B3E000E51001A02E0FF0E106F10C200F01200EC
:0A0B4E00C5DD94DD44DE1ADE12005E
:100B58000001A86BC80EA85D0BE21D0EE16E010E28
:100B6800E26EA851E126D8B0E22AE66AA82BF2D7AD
:040B7800A86B120054
:100B7C0021EC07F00F01256B246B9280956AAA0E6D
:100B8C008C6E0201086B096B010E0101086F1A6B68
:100B9C001B6B196B1F6A1C6B010E086F0201066B35
:100BAC009D8AF28CF28E99DE220EAF6EAC8469DED9
:100BBC00010E0201196F1CDC0C0E0201196F18DCFE
:100BCC00010E02010A6F010E0B6FC90E0C6F000EA5
:100BDC000D6FD8DE020E02010A6F030E0B6FA90E09
:100BEC000C6F000E0D6FCEDE7A0E0B6EC10E0C6EFE
:100BFC00810E0D6E0D2EFED70C2EFCD70B2EFAD7B8
:100C0C0000000000A3DF000E0201091902E1000E32
:100C1C00081910E1800E0A6F0F0E0B6F0C6B010E92
:100C2C000D6F010E0E6F55DF005204E0010E086FC0
:100C3C00000E096F000E091902E1010E081910E1EE
:100C4C00800E0A6F0F0E0B6F0C6B010E0D6F0E6B7F
:100C5C0040DF005205E08C1E020E086F000E096F7B
:100C6C00800E0A6F0F0E0B6F010E0C6F010E0D6FC5
:100C7C00010E0E6F2EDF005207E1000E091902E182
:100C8C00030E081901E05DD00101086BF28E000E15
:100C9C000201091902E1030E081923E0B60E196FBF
:100CAC00000E1A6F9ADC010E0A6F010E0B6FE10E2B
:100CBC000C6F000E0D6F66DE020E02010A6F030E42
:100CCC000B6FF40E0C6F000E0D6F5CDE030E020149
:100CDC00086F000E096FDA0E196F000E1A6F7DDCAB
:100CEC00B1DE076BF60E0A6F010E0B6F0C6B100E5C
:100CFC000D6F000E0E6F88DEF28E065301E1FDD7EC
:100D0C00F29E066B010E196FFEEC01F0010E020152
:100D1C000A6F010E0B6F9E0E0C6F000E0D6F32DE04
:100D2C00020E02010A6F030E0B6FF60E0C6F010E12
:100D3C000D6F28DEF60E0201196F010E1A6F4DDCD5
:060D4C0000DF61D7FFD7B4
:100E420010EE19F0EF0E006E010E016E520EF66EEC
:0E0E52000D0EF76E000EF86E3FEC04F012006D
:030D5200583A000C
:030D5500593A0008
:010D5800009A
:030D59005A3A0003
:070D5C005374616765350067
:070D63005374616765310064
:100D6A00416363656C206D6F64756C6520696E699B
:0C0D7A007469616C697A65642E0D0A00D2
:100D86004572726F7220647572696E6720696E694A
:0D0D96007469616C697A6174696F6E2E007A
:100DA300416363656C20746573742073746172743A
:090DB300696E672E2E2E0D0A0058
:100DBC0052656164696E6720617869732076616C35
:0B0DCC007565732E2E2E0D0A0D0A0017
:0A0DD70052656365697665643A00B1
:010DE1000011
:0D0DE20044656D6F206578616D706C650073
:100DEF00456E746572696E672044617461204D6F42
:030DFF0064650028
:100E0200426C7565546F6F74682D436C69636B2116
:010E120000DF
:070E130053746167653000B4
:100E1A00456E746572696E672044617461204D6F16
:030E2A00646500FC
:0E0E2D0048616E677320686572652E2E2E0078
:060E3B00000000000000B1
:020000040030CA
:0E00000015137F7CF98B91FFFFC0FFE0FF40DE
:00000001FF
